{"abi":[{"type":"constructor","inputs":[{"name":"initialSupply","type":"uint256","internalType":"uint256"},{"name":"tokenName","type":"string","internalType":"string"},{"name":"tokenSymbol","type":"string","internalType":"string"}],"stateMutability":"nonpayable"},{"type":"function","name":"allowance","inputs":[{"name":"","type":"address","internalType":"address"},{"name":"","type":"address","internalType":"address"}],"outputs":[{"name":"","type":"uint256","internalType":"uint256"}],"stateMutability":"view"},{"type":"function","name":"approve","inputs":[{"name":"_spender","type":"address","internalType":"address"},{"name":"_value","type":"uint256","internalType":"uint256"}],"outputs":[{"name":"success","type":"bool","internalType":"bool"}],"stateMutability":"nonpayable"},{"type":"function","name":"approveAndCall","inputs":[{"name":"_spender","type":"address","internalType":"address"},{"name":"_value","type":"uint256","internalType":"uint256"},{"name":"_extraData","type":"bytes","internalType":"bytes"}],"outputs":[{"name":"success","type":"bool","internalType":"bool"}],"stateMutability":"nonpayable"},{"type":"function","name":"balanceOf","inputs":[{"name":"","type":"address","internalType":"address"}],"outputs":[{"name":"","type":"uint256","internalType":"uint256"}],"stateMutability":"view"},{"type":"function","name":"burn","inputs":[{"name":"_value","type":"uint256","internalType":"uint256"}],"outputs":[{"name":"success","type":"bool","internalType":"bool"}],"stateMutability":"nonpayable"},{"type":"function","name":"burnFrom","inputs":[{"name":"_from","type":"address","internalType":"address"},{"name":"_value","type":"uint256","internalType":"uint256"}],"outputs":[{"name":"success","type":"bool","internalType":"bool"}],"stateMutability":"nonpayable"},{"type":"function","name":"decimals","inputs":[],"outputs":[{"name":"","type":"uint8","internalType":"uint8"}],"stateMutability":"view"},{"type":"function","name":"mint","inputs":[{"name":"to","type":"address","internalType":"address"},{"name":"amount","type":"uint256","internalType":"uint256"}],"outputs":[],"stateMutability":"nonpayable"},{"type":"function","name":"name","inputs":[],"outputs":[{"name":"","type":"string","internalType":"string"}],"stateMutability":"view"},{"type":"function","name":"symbol","inputs":[],"outputs":[{"name":"","type":"string","internalType":"string"}],"stateMutability":"view"},{"type":"function","name":"totalSupply","inputs":[],"outputs":[{"name":"","type":"uint256","internalType":"uint256"}],"stateMutability":"view"},{"type":"function","name":"transfer","inputs":[{"name":"_to","type":"address","internalType":"address"},{"name":"_value","type":"uint256","internalType":"uint256"}],"outputs":[{"name":"success","type":"bool","internalType":"bool"}],"stateMutability":"nonpayable"},{"type":"function","name":"transferFrom","inputs":[{"name":"_from","type":"address","internalType":"address"},{"name":"_to","type":"address","internalType":"address"},{"name":"_value","type":"uint256","internalType":"uint256"}],"outputs":[{"name":"success","type":"bool","internalType":"bool"}],"stateMutability":"nonpayable"},{"type":"event","name":"Approval","inputs":[{"name":"_owner","type":"address","indexed":true,"internalType":"address"},{"name":"_spender","type":"address","indexed":true,"internalType":"address"},{"name":"_value","type":"uint256","indexed":false,"internalType":"uint256"}],"anonymous":false},{"type":"event","name":"Burn","inputs":[{"name":"from","type":"address","indexed":true,"internalType":"address"},{"name":"value","type":"uint256","indexed":false,"internalType":"uint256"}],"anonymous":false},{"type":"event","name":"Transfer","inputs":[{"name":"from","type":"address","indexed":true,"internalType":"address"},{"name":"to","type":"address","indexed":true,"internalType":"address"},{"name":"value","type":"uint256","indexed":false,"internalType":"uint256"}],"anonymous":false}],"bytecode":{"object":"0x6080604052601260025f6101000a81548160ff021916908360ff1602179055503480156200002b575f80fd5b5060405162001cf038038062001cf08339818101604052810190620000519190620002b1565b60025f9054906101000a900460ff1660ff16600a620000719190620004c5565b836200007e919062000515565b60038190555060035460045f3373ffffffffffffffffffffffffffffffffffffffff1673ffffffffffffffffffffffffffffffffffffffff1681526020019081526020015f2081905550815f9081620000d891906200078d565b508060019081620000ea91906200078d565b5050505062000871565b5f604051905090565b5f80fd5b5f80fd5b5f819050919050565b620001198162000105565b811462000124575f80fd5b50565b5f8151905062000137816200010e565b92915050565b5f80fd5b5f80fd5b5f601f19601f8301169050919050565b7f4e487b71000000000000000000000000000000000000000000000000000000005f52604160045260245ffd5b6200018d8262000145565b810181811067ffffffffffffffff82111715620001af57620001ae62000155565b5b80604052505050565b5f620001c3620000f4565b9050620001d1828262000182565b919050565b5f67ffffffffffffffff821115620001f357620001f262000155565b5b620001fe8262000145565b9050602081019050919050565b5f5b838110156200022a5780820151818401526020810190506200020d565b5f8484015250505050565b5f6200024b6200024584620001d6565b620001b8565b9050828152602081018484840111156200026a576200026962000141565b5b620002778482856200020b565b509392505050565b5f82601f8301126200029657620002956200013d565b5b8151620002a884826020860162000235565b91505092915050565b5f805f60608486031215620002cb57620002ca620000fd565b5b5f620002da8682870162000127565b935050602084015167ffffffffffffffff811115620002fe57620002fd62000101565b5b6200030c868287016200027f565b925050604084015167ffffffffffffffff81111562000330576200032f62000101565b5b6200033e868287016200027f565b9150509250925092565b7f4e487b71000000000000000000000000000000000000000000000000000000005f52601160045260245ffd5b5f8160011c9050919050565b5f808291508390505b6001851115620003d257808604811115620003aa57620003a962000348565b5b6001851615620003ba5780820291505b8081029050620003ca8562000375565b94506200038a565b94509492505050565b5f82620003ec5760019050620004be565b81620003fb575f9050620004be565b81600181146200041457600281146200041f5762000455565b6001915050620004be565b60ff84111562000434576200043362000348565b5b8360020a9150848211156200044e576200044d62000348565b5b50620004be565b5060208310610133831016604e8410600b84101617156200048f5782820a90508381111562000489576200048862000348565b5b620004be565b6200049e848484600162000381565b92509050818404811115620004b857620004b762000348565b5b81810290505b9392505050565b5f620004d18262000105565b9150620004de8362000105565b92506200050d7fffffffffffffffffffffffffffffffffffffffffffffffffffffffffffffffff8484620003db565b905092915050565b5f620005218262000105565b91506200052e8362000105565b92508282026200053e8162000105565b9150828204841483151762000558576200055762000348565b5b5092915050565b5f81519050919050565b7f4e487b71000000000000000000000000000000000000000000000000000000005f52602260045260245ffd5b5f6002820490506001821680620005ae57607f821691505b602082108103620005c457620005c362000569565b5b50919050565b5f819050815f5260205f209050919050565b5f6020601f8301049050919050565b5f82821b905092915050565b5f60088302620006287fffffffffffffffffffffffffffffffffffffffffffffffffffffffffffffffff82620005eb565b620006348683620005eb565b95508019841693508086168417925050509392505050565b5f819050919050565b5f620006756200066f620006698462000105565b6200064c565b62000105565b9050919050565b5f819050919050565b620006908362000655565b620006a86200069f826200067c565b848454620005f7565b825550505050565b5f90565b620006be620006b0565b620006cb81848462000685565b505050565b5b81811015620006f257620006e65f82620006b4565b600181019050620006d1565b5050565b601f82111562000741576200070b81620005ca565b6200071684620005dc565b8101602085101562000726578190505b6200073e6200073585620005dc565b830182620006d0565b50505b505050565b5f82821c905092915050565b5f620007635f198460080262000746565b1980831691505092915050565b5f6200077d838362000752565b9150826002028217905092915050565b62000798826200055f565b67ffffffffffffffff811115620007b457620007b362000155565b5b620007c0825462000596565b620007cd828285620006f6565b5f60209050601f83116001811462000803575f8415620007ee578287015190505b620007fa858262000770565b86555062000869565b601f1984166200081386620005ca565b5f5b828110156200083c5784890151825560018201915060208501945060208101905062000815565b868310156200085c578489015162000858601f89168262000752565b8355505b6001600288020188555050505b505050505050565b611471806200087f5f395ff3fe608060405234801561000f575f80fd5b50600436106100cd575f3560e01c806342966c681161008a57806395d89b411161006457806395d89b4114610237578063a9059cbb14610255578063cae9ca5114610285578063dd62ed3e146102b5576100cd565b806342966c68146101a757806370a08231146101d757806379cc679014610207576100cd565b806306fdde03146100d1578063095ea7b3146100ef57806318160ddd1461011f57806323b872dd1461013d578063313ce5671461016d57806340c10f191461018b575b5f80fd5b6100d96102e5565b6040516100e69190610e6c565b60405180910390f35b61010960048036038101906101049190610f2a565b610370565b6040516101169190610f82565b60405180910390f35b61012761045d565b6040516101349190610faa565b60405180910390f35b61015760048036038101906101529190610fc3565b610463565b6040516101649190610f82565b60405180910390f35b61017561058c565b604051610182919061102e565b60405180910390f35b6101a560048036038101906101a09190610f2a565b61059e565b005b6101c160048036038101906101bc9190611047565b61060d565b6040516101ce9190610f82565b60405180910390f35b6101f160048036038101906101ec9190611072565b610719565b6040516101fe9190610faa565b60405180910390f35b610221600480360381019061021c9190610f2a565b61072e565b60405161022e9190610f82565b60405180910390f35b61023f61094d565b60405161024c9190610e6c565b60405180910390f35b61026f600480360381019061026a9190610f2a565b6109d9565b60405161027c9190610f82565b60405180910390f35b61029f600480360381019061029a91906111c9565b6109ef565b6040516102ac9190610f82565b60405180910390f35b6102cf60048036038101906102ca9190611235565b610a82565b6040516102dc9190610faa565b60405180910390f35b5f80546102f1906112a0565b80601f016020809104026020016040519081016040528092919081815260200182805461031d906112a0565b80156103685780601f1061033f57610100808354040283529160200191610368565b820191905f5260205f20905b81548152906001019060200180831161034b57829003601f168201915b505050505081565b5f8160055f3373ffffffffffffffffffffffffffffffffffffffff1673ffffffffffffffffffffffffffffffffffffffff1681526020019081526020015f205f8573ffffffffffffffffffffffffffffffffffffffff1673ffffffffffffffffffffffffffffffffffffffff1681526020019081526020015f20819055508273ffffffffffffffffffffffffffffffffffffffff163373ffffffffffffffffffffffffffffffffffffffff167f8c5be1e5ebec7d5bd14f71427d1e84f3dd0314c0f7b2291e5b200ac8c7c3b9258460405161044b9190610faa565b60405180910390a36001905092915050565b60035481565b5f60055f8573ffffffffffffffffffffffffffffffffffffffff1673ffffffffffffffffffffffffffffffffffffffff1681526020019081526020015f205f3373ffffffffffffffffffffffffffffffffffffffff1673ffffffffffffffffffffffffffffffffffffffff1681526020019081526020015f20548211156104e8575f80fd5b8160055f8673ffffffffffffffffffffffffffffffffffffffff1673ffffffffffffffffffffffffffffffffffffffff1681526020019081526020015f205f3373ffffffffffffffffffffffffffffffffffffffff1673ffffffffffffffffffffffffffffffffffffffff1681526020019081526020015f205f82825461056f91906112fd565b92505081905550610581848484610aa2565b600190509392505050565b60025f9054906101000a900460ff1681565b8060035f8282546105af9190611330565b925050819055508060045f8473ffffffffffffffffffffffffffffffffffffffff1673ffffffffffffffffffffffffffffffffffffffff1681526020019081526020015f205f8282546106029190611330565b925050819055505050565b5f8160045f3373ffffffffffffffffffffffffffffffffffffffff1673ffffffffffffffffffffffffffffffffffffffff1681526020019081526020015f20541015610657575f80fd5b8160045f3373ffffffffffffffffffffffffffffffffffffffff1673ffffffffffffffffffffffffffffffffffffffff1681526020019081526020015f205f8282546106a391906112fd565b925050819055508160035f8282546106bb91906112fd565b925050819055503373ffffffffffffffffffffffffffffffffffffffff167fcc16f5dbb4873280815c1ee09dbd06736cffcc184412cf7a71a0fdb75d397ca5836040516107089190610faa565b60405180910390a260019050919050565b6004602052805f5260405f205f915090505481565b5f8160045f8573ffffffffffffffffffffffffffffffffffffffff1673ffffffffffffffffffffffffffffffffffffffff1681526020019081526020015f20541015610778575f80fd5b60055f8473ffffffffffffffffffffffffffffffffffffffff1673ffffffffffffffffffffffffffffffffffffffff1681526020019081526020015f205f3373ffffffffffffffffffffffffffffffffffffffff1673ffffffffffffffffffffffffffffffffffffffff1681526020019081526020015f20548211156107fc575f80fd5b8160045f8573ffffffffffffffffffffffffffffffffffffffff1673ffffffffffffffffffffffffffffffffffffffff1681526020019081526020015f205f82825461084891906112fd565b925050819055508160055f8573ffffffffffffffffffffffffffffffffffffffff1673ffffffffffffffffffffffffffffffffffffffff1681526020019081526020015f205f3373ffffffffffffffffffffffffffffffffffffffff1673ffffffffffffffffffffffffffffffffffffffff1681526020019081526020015f205f8282546108d691906112fd565b925050819055508160035f8282546108ee91906112fd565b925050819055508273ffffffffffffffffffffffffffffffffffffffff167fcc16f5dbb4873280815c1ee09dbd06736cffcc184412cf7a71a0fdb75d397ca58360405161093b9190610faa565b60405180910390a26001905092915050565b6001805461095a906112a0565b80601f0160208091040260200160405190810160405280929190818152602001828054610986906112a0565b80156109d15780601f106109a8576101008083540402835291602001916109d1565b820191905f5260205f20905b8154815290600101906020018083116109b457829003601f168201915b505050505081565b5f6109e5338484610aa2565b6001905092915050565b5f808490506109fe8585610370565b15610a79578073ffffffffffffffffffffffffffffffffffffffff16638f4ffcb1338630876040518563ffffffff1660e01b8152600401610a4294939291906113c4565b5f604051808303815f87803b158015610a59575f80fd5b505af1158015610a6b573d5f803e3d5ffd5b505050506001915050610a7b565b505b9392505050565b6005602052815f5260405f20602052805f5260405f205f91509150505481565b5f73ffffffffffffffffffffffffffffffffffffffff168273ffffffffffffffffffffffffffffffffffffffff1603610ad9575f80fd5b8060045f8573ffffffffffffffffffffffffffffffffffffffff1673ffffffffffffffffffffffffffffffffffffffff1681526020019081526020015f20541015610b22575f80fd5b60045f8373ffffffffffffffffffffffffffffffffffffffff1673ffffffffffffffffffffffffffffffffffffffff1681526020019081526020015f20548160045f8573ffffffffffffffffffffffffffffffffffffffff1673ffffffffffffffffffffffffffffffffffffffff1681526020019081526020015f2054610ba99190611330565b1015610bb3575f80fd5b5f60045f8473ffffffffffffffffffffffffffffffffffffffff1673ffffffffffffffffffffffffffffffffffffffff1681526020019081526020015f205460045f8673ffffffffffffffffffffffffffffffffffffffff1673ffffffffffffffffffffffffffffffffffffffff1681526020019081526020015f2054610c3a9190611330565b90508160045f8673ffffffffffffffffffffffffffffffffffffffff1673ffffffffffffffffffffffffffffffffffffffff1681526020019081526020015f205f828254610c8891906112fd565b925050819055508160045f8573ffffffffffffffffffffffffffffffffffffffff1673ffffffffffffffffffffffffffffffffffffffff1681526020019081526020015f205f828254610cdb9190611330565b925050819055508273ffffffffffffffffffffffffffffffffffffffff168473ffffffffffffffffffffffffffffffffffffffff167fddf252ad1be2c89b69c2b068fc378daa952ba7f163c4a11628f55a4df523b3ef84604051610d3f9190610faa565b60405180910390a38060045f8573ffffffffffffffffffffffffffffffffffffffff1673ffffffffffffffffffffffffffffffffffffffff1681526020019081526020015f205460045f8773ffffffffffffffffffffffffffffffffffffffff1673ffffffffffffffffffffffffffffffffffffffff1681526020019081526020015f2054610dce9190611330565b14610ddc57610ddb61140e565b5b50505050565b5f81519050919050565b5f82825260208201905092915050565b5f5b83811015610e19578082015181840152602081019050610dfe565b5f8484015250505050565b5f601f19601f8301169050919050565b5f610e3e82610de2565b610e488185610dec565b9350610e58818560208601610dfc565b610e6181610e24565b840191505092915050565b5f6020820190508181035f830152610e848184610e34565b905092915050565b5f604051905090565b5f80fd5b5f80fd5b5f73ffffffffffffffffffffffffffffffffffffffff82169050919050565b5f610ec682610e9d565b9050919050565b610ed681610ebc565b8114610ee0575f80fd5b50565b5f81359050610ef181610ecd565b92915050565b5f819050919050565b610f0981610ef7565b8114610f13575f80fd5b50565b5f81359050610f2481610f00565b92915050565b5f8060408385031215610f4057610f3f610e95565b5b5f610f4d85828601610ee3565b9250506020610f5e85828601610f16565b9150509250929050565b5f8115159050919050565b610f7c81610f68565b82525050565b5f602082019050610f955f830184610f73565b92915050565b610fa481610ef7565b82525050565b5f602082019050610fbd5f830184610f9b565b92915050565b5f805f60608486031215610fda57610fd9610e95565b5b5f610fe786828701610ee3565b9350506020610ff886828701610ee3565b925050604061100986828701610f16565b9150509250925092565b5f60ff82169050919050565b61102881611013565b82525050565b5f6020820190506110415f83018461101f565b92915050565b5f6020828403121561105c5761105b610e95565b5b5f61106984828501610f16565b91505092915050565b5f6020828403121561108757611086610e95565b5b5f61109484828501610ee3565b91505092915050565b5f80fd5b5f80fd5b7f4e487b71000000000000000000000000000000000000000000000000000000005f52604160045260245ffd5b6110db82610e24565b810181811067ffffffffffffffff821117156110fa576110f96110a5565b5b80604052505050565b5f61110c610e8c565b905061111882826110d2565b919050565b5f67ffffffffffffffff821115611137576111366110a5565b5b61114082610e24565b9050602081019050919050565b828183375f83830152505050565b5f61116d6111688461111d565b611103565b905082815260208101848484011115611189576111886110a1565b5b61119484828561114d565b509392505050565b5f82601f8301126111b0576111af61109d565b5b81356111c084826020860161115b565b91505092915050565b5f805f606084860312156111e0576111df610e95565b5b5f6111ed86828701610ee3565b93505060206111fe86828701610f16565b925050604084013567ffffffffffffffff81111561121f5761121e610e99565b5b61122b8682870161119c565b9150509250925092565b5f806040838503121561124b5761124a610e95565b5b5f61125885828601610ee3565b925050602061126985828601610ee3565b9150509250929050565b7f4e487b71000000000000000000000000000000000000000000000000000000005f52602260045260245ffd5b5f60028204905060018216806112b757607f821691505b6020821081036112ca576112c9611273565b5b50919050565b7f4e487b71000000000000000000000000000000000000000000000000000000005f52601160045260245ffd5b5f61130782610ef7565b915061131283610ef7565b925082820390508181111561132a576113296112d0565b5b92915050565b5f61133a82610ef7565b915061134583610ef7565b925082820190508082111561135d5761135c6112d0565b5b92915050565b61136c81610ebc565b82525050565b5f81519050919050565b5f82825260208201905092915050565b5f61139682611372565b6113a0818561137c565b93506113b0818560208601610dfc565b6113b981610e24565b840191505092915050565b5f6080820190506113d75f830187611363565b6113e46020830186610f9b565b6113f16040830185611363565b8181036060830152611403818461138c565b905095945050505050565b7f4e487b71000000000000000000000000000000000000000000000000000000005f52600160045260245ffdfea264697066735822122042eefe6ed28407be334e10f4c496e1c41c234c0f960d8e8d26a104f4b9217e7b64736f6c63430008180033","linkReferences":{}},"methodIdentifiers":{"allowance(address,address)":"dd62ed3e","approve(address,uint256)":"095ea7b3","approveAndCall(address,uint256,bytes)":"cae9ca51","balanceOf(address)":"70a08231","burn(uint256)":"42966c68","burnFrom(address,uint256)":"79cc6790","decimals()":"313ce567","mint(address,uint256)":"40c10f19","name()":"06fdde03","symbol()":"95d89b41","totalSupply()":"18160ddd","transfer(address,uint256)":"a9059cbb","transferFrom(address,address,uint256)":"23b872dd"},"id":0}